:020000040000FA
:100000000128831285010730990083160B30850083
:1000100083128316FF23900083128B1341309F00BD
:10002000831613309F008312B330B200A930B3009F
:100030009A30B400B501051135183228C001C1014C
:100040004030C80061209020C80B22284008C20020
:100050004108C300063097204308C1006D200430DA
:1000600040201C2805151C28A0004620A003031DC5
:1000700035280800A1004E20A103031D3B280800DD
:10008000A2005620A203031D412808001730A30038
:10009000A303031D4828000000000800F830A40056
:1000A000A403031D5028000000000800FA30A5003A
:1000B0004E20A503031D58280800C601C60B5E2864
:1000C00008009F149F1862281E08C30083161E088C
:1000D0008312C601C60B6A28080032084102031CBD
:1000E000732885120800851633084102031C7A28FC
:1000F00005120800051634084102031C8028080078
:1001000085120516F030402085160512F03040208B
:1001100085120516F03040208516051535140800A7
:100120004308C10742080318420FC0070800C70070
:0C0130000310C20CC30CC70B9828080079
:0207FE00503475
:02400E00A43FCD
:00000001FF
